:020000040040BA
:1000000000040020C1004000C9004000CB004000B7
:10001000CD004000CF004000D100400000000000B3
:10002000000000000000000000000000D3004000BD
:10003000D500400000000000D7004000D90040007B
:10004000DB004000DB004000DB004000DB00400044
:10005000DB004000DB004000DB004000000000004F
:10006000DB004000DB00400000000000DB0040003F
:10007000DB004000DB004000DB004000DB00400014
:10008000000000000000000000000000DB00400055
:10009000DB004000DB00400000000000DB0040000F
:1000A000DB004000DB004000DB004000DB004000E4
:1000B000DB004000DB004000DB004000DB004000D4
:1000C0000948804709480047FEE7FEE7FEE7FEE7EC
:1000D000FEE7FEE7FEE7FEE7FEE7FEE70448054928
:1000E000054A064B70470000090140008D014000A1
:1000F0000000002000040020000200200002002078
:10010000704770477047000040F26840C4F20E002C
:100110004FF4007244F20031C0F8982540F2011209
:10012000C5F24D01C0F23712C16740F8482C00BF3C
:100130000268D207FCD048F20162C2F20F0240F816
:10014000402C00BF02689207FCD550F8382C0223DF
:1001500063F3061240F8382C02681207FCD52222FD
:1001600040F8382C02681207FCD5002240F8682CB1
:100170004FF4E052013140F8582CC16741F254402D
:10018000C4F20E004FF400410160704700F085F8A2
:100190004FF008044FF01007604D2E68B44274D041
:1001A000B742F5D100F092F800F095F800F098F819
:1001B00000F0AAF8594D2E68082E66D000F09FF87E
:1001C00000F0A2F8554D2E68082E5ED000F088F899
:1001D00000F090F800F098F8504D2E68082E54D09A
:1001E00000F08DF800F081F800F08EF84B4D2E688D
:1001F000082E4AD000F06FF800F072F800F084F892
:10020000464D2E68082E40D000F079F800F07CF8BA
:10021000424D2E68082E38D000F058F800F06AF8E9
:1002200000F05EF800F070F83C4D2E68082E2CD0DF
:1002300000F056F800F068F8384D2E68082E24D0EB
:1002400000F044F800F047F800F04AF800F05CF8DD
:10025000324D2E68082E18D000F047F800F04FF805
:1002600000F052F82D4D2E68082E0ED000F042F806
:1002700000F036F800F048F8284D2E68082E04D01B
:1002800000F03DF800F040F882E700F02EF800F0B2
:1002900031F800F034F8FFF77BFF4FF00104204DF8
:1002A0002C60204D2C60204D2C604FF004041C4D20
:1002B0002C601C4D2C601C4D2C604FF00204184D1E
:1002C0002C60184D2C60184D2C6070474FF00104C5
:1002D000164D2C6070474FF00204144D2C6070478F
:1002E0004FF00404114D2C6070474FF00104104D85
:1002F0002C6070474FF002040D4D2C6070474FF09A
:1003000004040B4D2C6070474FF000044FF420257F
:1003100004F10104AC42FBD1704700004C0E0E40CA
:10032000000E0E40100E0E40400E0E40300E0E40DD
:04033000340E0E4039
:040000050040018D29
:00000001FF
